{
  "address": "0xA02Ef143Ac1f98decEa9c82b02e0b88675Dd937c",
  "abi": [
    {
      "inputs": [
        {
          "internalType": "address",
          "name": "owner",
          "type": "address"
        },
        {
          "internalType": "bool",
          "name": "permissioned",
          "type": "bool"
        },
        {
          "internalType": "uint256",
          "name": "maxMinAmount",
          "type": "uint256"
        }
      ],
      "stateMutability": "nonpayable",
      "type": "constructor"
    },
    {
      "anonymous": false,
      "inputs": [
        {
          "indexed": true,
          "internalType": "address",
          "name": "previousOwner",
          "type": "address"
        },
        {
          "indexed": true,
          "internalType": "address",
          "name": "newOwner",
          "type": "address"
        }
      ],
      "name": "OwnershipTransferred",
      "type": "event"
    },
    {
      "inputs": [
        {
          "internalType": "address",
          "name": "asset",
          "type": "address"
        }
      ],
      "name": "addAsset",
      "outputs": [],
      "stateMutability": "nonpayable",
      "type": "function"
    },
    {
      "inputs": [],
      "name": "cooldownPeriod",
      "outputs": [
        {
          "internalType": "uint256",
          "name": "",
          "type": "uint256"
        }
      ],
      "stateMutability": "view",
      "type": "function"
    },
    {
      "inputs": [],
      "name": "getAssetList",
      "outputs": [
        {
          "internalType": "address[]",
          "name": "",
          "type": "address[]"
        }
      ],
      "stateMutability": "view",
      "type": "function"
    },
    {
      "inputs": [],
      "name": "getLimitDecimal",
      "outputs": [
        {
          "internalType": "uint256",
          "name": "",
          "type": "uint256"
        }
      ],
      "stateMutability": "view",
      "type": "function"
    },
    {
      "inputs": [],
      "name": "getMaximumMintAmount",
      "outputs": [
        {
          "internalType": "uint256",
          "name": "",
          "type": "uint256"
        }
      ],
      "stateMutability": "view",
      "type": "function"
    },
    {
      "inputs": [
        {
          "internalType": "address",
          "name": "asset",
          "type": "address"
        }
      ],
      "name": "isAssetListed",
      "outputs": [
        {
          "internalType": "bool",
          "name": "",
          "type": "bool"
        }
      ],
      "stateMutability": "view",
      "type": "function"
    },
    {
      "inputs": [
        {
          "internalType": "address",
          "name": "asset",
          "type": "address"
        }
      ],
      "name": "isMintable",
      "outputs": [
        {
          "internalType": "bool",
          "name": "",
          "type": "bool"
        }
      ],
      "stateMutability": "view",
      "type": "function"
    },
    {
      "inputs": [],
      "name": "isPermissioned",
      "outputs": [
        {
          "internalType": "bool",
          "name": "",
          "type": "bool"
        }
      ],
      "stateMutability": "view",
      "type": "function"
    },
    {
      "inputs": [
        {
          "internalType": "address",
          "name": "token",
          "type": "address"
        },
        {
          "internalType": "address",
          "name": "to",
          "type": "address"
        },
        {
          "internalType": "uint256",
          "name": "amount",
          "type": "uint256"
        }
      ],
      "name": "mint",
      "outputs": [
        {
          "internalType": "uint256",
          "name": "",
          "type": "uint256"
        }
      ],
      "stateMutability": "nonpayable",
      "type": "function"
    },
    {
      "inputs": [
        {
          "internalType": "address",
          "name": "token",
          "type": "address"
        },
        {
          "internalType": "address",
          "name": "to",
          "type": "address"
        },
        {
          "internalType": "uint256",
          "name": "amount",
          "type": "uint256"
        }
      ],
      "name": "mintByOwner",
      "outputs": [
        {
          "internalType": "uint256",
          "name": "",
          "type": "uint256"
        }
      ],
      "stateMutability": "nonpayable",
      "type": "function"
    },
    {
      "inputs": [],
      "name": "owner",
      "outputs": [
        {
          "internalType": "address",
          "name": "",
          "type": "address"
        }
      ],
      "stateMutability": "view",
      "type": "function"
    },
    {
      "inputs": [],
      "name": "renounceOwnership",
      "outputs": [],
      "stateMutability": "nonpayable",
      "type": "function"
    },
    {
      "inputs": [
        {
          "internalType": "address",
          "name": "asset",
          "type": "address"
        },
        {
          "internalType": "uint256",
          "name": "amount",
          "type": "uint256"
        }
      ],
      "name": "requestTokens",
      "outputs": [
        {
          "internalType": "uint256",
          "name": "",
          "type": "uint256"
        }
      ],
      "stateMutability": "nonpayable",
      "type": "function"
    },
    {
      "inputs": [
        {
          "internalType": "address",
          "name": "asset",
          "type": "address"
        },
        {
          "internalType": "address",
          "name": "to",
          "type": "address"
        },
        {
          "internalType": "uint256",
          "name": "amount",
          "type": "uint256"
        }
      ],
      "name": "requestTokensByOwner",
      "outputs": [
        {
          "internalType": "uint256",
          "name": "",
          "type": "uint256"
        }
      ],
      "stateMutability": "nonpayable",
      "type": "function"
    },
    {
      "inputs": [
        {
          "internalType": "uint256",
          "name": "newCooldownPeriod",
          "type": "uint256"
        }
      ],
      "name": "setCooldownPeriod",
      "outputs": [],
      "stateMutability": "nonpayable",
      "type": "function"
    },
    {
      "inputs": [
        {
          "internalType": "uint256",
          "name": "newLimitDecimal",
          "type": "uint256"
        }
      ],
      "name": "setLimitDecimal",
      "outputs": [],
      "stateMutability": "nonpayable",
      "type": "function"
    },
    {
      "inputs": [
        {
          "internalType": "uint256",
          "name": "newMaxMintAmount",
          "type": "uint256"
        }
      ],
      "name": "setMaximumMintAmount",
      "outputs": [],
      "stateMutability": "nonpayable",
      "type": "function"
    },
    {
      "inputs": [
        {
          "internalType": "address",
          "name": "asset",
          "type": "address"
        },
        {
          "internalType": "bool",
          "name": "active",
          "type": "bool"
        }
      ],
      "name": "setMintable",
      "outputs": [],
      "stateMutability": "nonpayable",
      "type": "function"
    },
    {
      "inputs": [
        {
          "internalType": "bool",
          "name": "permissioned",
          "type": "bool"
        }
      ],
      "name": "setPermissioned",
      "outputs": [],
      "stateMutability": "nonpayable",
      "type": "function"
    },
    {
      "inputs": [
        {
          "internalType": "address[]",
          "name": "childContracts",
          "type": "address[]"
        },
        {
          "internalType": "bool",
          "name": "state",
          "type": "bool"
        }
      ],
      "name": "setProtectedOfChild",
      "outputs": [],
      "stateMutability": "nonpayable",
      "type": "function"
    },
    {
      "inputs": [
        {
          "internalType": "address",
          "name": "asset",
          "type": "address"
        },
        {
          "internalType": "uint256",
          "name": "amount",
          "type": "uint256"
        }
      ],
      "name": "transferAssetToOwner",
      "outputs": [
        {
          "internalType": "uint256",
          "name": "",
          "type": "uint256"
        }
      ],
      "stateMutability": "nonpayable",
      "type": "function"
    },
    {
      "inputs": [
        {
          "internalType": "address",
          "name": "newOwner",
          "type": "address"
        }
      ],
      "name": "transferOwnership",
      "outputs": [],
      "stateMutability": "nonpayable",
      "type": "function"
    },
    {
      "inputs": [
        {
          "internalType": "address[]",
          "name": "childContracts",
          "type": "address[]"
        },
        {
          "internalType": "address",
          "name": "newOwner",
          "type": "address"
        }
      ],
      "name": "transferOwnershipOfChild",
      "outputs": [],
      "stateMutability": "nonpayable",
      "type": "function"
    }
  ],
  "transactionHash": "0x472a32878af113118377db6ce95dcc94260443a211cfc9eb2234f1dacd7f7985",
  "args": [
    "0xBC0469bE5109D1652D76CCC726f037fD62bd1f30",
    false,
    10000
  ],
  "numDeployments": 1,
  "solcInputHash": "47274ab41720418130c606fd62d87c3a",
  "bytecode": "0x6080604052610e106007553480156200001757600080fd5b506040516200244f3803806200244f8339810160408190526200003a91620001b6565b600080546001600160a01b031916339081178255604051909182916000805160206200242f833981519152908290a3506001600160a01b0383166200007e57600080fd5b6200008983620000a5565b6005805460ff191692151592909217909155600155506200020d565b6000546001600160a01b03163314620001055760405162461bcd60e51b815260206004820181905260248201527f4f776e61626c653a2063616c6c6572206973206e6f7420746865206f776e657260448201526064015b60405180910390fd5b6001600160a01b0381166200016c5760405162461bcd60e51b815260206004820152602660248201527f4f776e61626c653a206e6577206f776e657220697320746865207a65726f206160448201526564647265737360d01b6064820152608401620000fc565b600080546040516001600160a01b03808516939216916000805160206200242f83398151915291a3600080546001600160a01b0319166001600160a01b0392909216919091179055565b600080600060608486031215620001cc57600080fd5b83516001600160a01b0381168114620001e457600080fd5b60208501519093508015158114620001fb57600080fd5b80925050604084015190509250925092565b612212806200021d6000396000f3fe608060405234801561001057600080fd5b506004361061018d5760003560e01c8063890d17eb116100e3578063ca51a9031161008c578063e2a4157c11610066578063e2a4157c14610346578063f2fde38b14610351578063f7eb06c41461036457600080fd5b8063ca51a90314610318578063d34b68e71461032b578063dd26b1d31461033e57600080fd5b80639420d476116100bd5780639420d476146102df578063af421564146102f2578063c6c3bbe61461030557600080fd5b8063890d17eb146102915780638da5cb5b146102a45780638dd48fa6146102cc57600080fd5b80633765c0b8116101455780636feca45e1161011f5780636feca45e1461026e578063715018a61461027657806380ea3de11461027e57600080fd5b80633765c0b81461023357806347eaef0114610248578063506f26cc1461025b57600080fd5b80631a678cd3116101765780631a678cd3146101c1578063222b15fb146101d6578063298410e51461022057600080fd5b806304646a49146101925780631081a137146101ae575b600080fd5b61019b60075481565b6040519081526020015b60405180910390f35b61019b6101bc366004611cfd565b610377565b6101d46101cf366004611d38565b61066d565b005b6102106101e4366004611d5c565b73ffffffffffffffffffffffffffffffffffffffff1660009081526003602052604090205460ff161590565b60405190151581526020016101a5565b6101d461022e366004611d5c565b61071f565b61023b610817565b6040516101a59190611d77565b610210610256366004611d5c565b610886565b6101d4610269366004611e1d565b61090a565b60025461019b565b6101d4610a59565b6101d461028c366004611e71565b610b49565b6101d461029f366004611e71565b610bcf565b60005460405173ffffffffffffffffffffffffffffffffffffffff90911681526020016101a5565b61019b6102da366004611e8a565b610c55565b6101d46102ed366004611e71565b610e09565b61019b610300366004611cfd565b610e8f565b61019b610313366004611e8a565b6112a5565b6101d4610326366004611ec6565b61164e565b61019b610339366004611e8a565b611797565b60015461019b565b60055460ff16610210565b6101d461035f366004611d5c565b611a4e565b6101d4610372366004611f1d565b611bff565b6000805473ffffffffffffffffffffffffffffffffffffffff1633146103fe576040517f08c379a000000000000000000000000000000000000000000000000000000000815260206004820181905260248201527f4f776e61626c653a2063616c6c6572206973206e6f7420746865206f776e657260448201526064015b60405180910390fd5b61040783610886565b61046d576040517f08c379a000000000000000000000000000000000000000000000000000000000815260206004820152601760248201527f4572726f723a204173736574206e6f74206c697374656400000000000000000060448201526064016103f5565b6040517f70a0823100000000000000000000000000000000000000000000000000000000815230600482015260009073ffffffffffffffffffffffffffffffffffffffff8516906370a0823190602401602060405180830381865afa1580156104da573d6000803e3d6000fd5b505050506040513d601f19601f820116820180604052508101906104fe9190611f54565b905082811015610590576040517f08c379a000000000000000000000000000000000000000000000000000000000815260206004820152602260248201527f4572726f723a20496e73756666696369656e74206661756365742062616c616e60448201527f636500000000000000000000000000000000000000000000000000000000000060648201526084016103f5565b8373ffffffffffffffffffffffffffffffffffffffff1663a9059cbb6105cb60005473ffffffffffffffffffffffffffffffffffffffff1690565b6040517fffffffff0000000000000000000000000000000000000000000000000000000060e084901b16815273ffffffffffffffffffffffffffffffffffffffff9091166004820152602481018690526044016020604051808303816000875af115801561063d573d6000803e3d6000fd5b505050506040513d601f19601f820116820180604052508101906106619190611f6d565b50829150505b92915050565b60005473ffffffffffffffffffffffffffffffffffffffff1633146106ee576040517f08c379a000000000000000000000000000000000000000000000000000000000815260206004820181905260248201527f4f776e61626c653a2063616c6c6572206973206e6f7420746865206f776e657260448201526064016103f5565b600580547fffffffffffffffffffffffffffffffffffffffffffffffffffffffffffffff0016911515919091179055565b60005473ffffffffffffffffffffffffffffffffffffffff1633146107a0576040517f08c379a000000000000000000000000000000000000000000000000000000000815260206004820181905260248201527f4f776e61626c653a2063616c6c6572206973206e6f7420746865206f776e657260448201526064016103f5565b600480546001810182556000919091527f8a35acfbc15ff81a39ae7d344fd709f28e8600b4aa8c65c6b64bfe7fe36bd19b0180547fffffffffffffffffffffffff00000000000000000000000000000000000000001673ffffffffffffffffffffffffffffffffffffffff92909216919091179055565b6060600480548060200260200160405190810160405280929190818152602001828054801561087c57602002820191906000526020600020905b815473ffffffffffffffffffffffffffffffffffffffff168152600190910190602001808311610851575b5050505050905090565b6000805b600454811015610901578273ffffffffffffffffffffffffffffffffffffffff16600482815481106108be576108be611f8a565b60009182526020909120015473ffffffffffffffffffffffffffffffffffffffff1614156108ef5750600192915050565b806108f981611fe8565b91505061088a565b50600092915050565b60005473ffffffffffffffffffffffffffffffffffffffff16331461098b576040517f08c379a000000000000000000000000000000000000000000000000000000000815260206004820181905260248201527f4f776e61626c653a2063616c6c6572206973206e6f7420746865206f776e657260448201526064016103f5565b60005b82811015610a53578383828181106109a8576109a8611f8a565b90506020020160208101906109bd9190611d5c565b6040517ff2fde38b00000000000000000000000000000000000000000000000000000000815273ffffffffffffffffffffffffffffffffffffffff8481166004830152919091169063f2fde38b90602401600060405180830381600087803b158015610a2857600080fd5b505af1158015610a3c573d6000803e3d6000fd5b505050508080610a4b90611fe8565b91505061098e565b50505050565b60005473ffffffffffffffffffffffffffffffffffffffff163314610ada576040517f08c379a000000000000000000000000000000000000000000000000000000000815260206004820181905260248201527f4f776e61626c653a2063616c6c6572206973206e6f7420746865206f776e657260448201526064016103f5565b6000805460405173ffffffffffffffffffffffffffffffffffffffff909116907f8be0079c531659141344cd1fd0a4f28419497f9722a3daafe3b4186f6b6457e0908390a3600080547fffffffffffffffffffffffff0000000000000000000000000000000000000000169055565b60005473ffffffffffffffffffffffffffffffffffffffff163314610bca576040517f08c379a000000000000000000000000000000000000000000000000000000000815260206004820181905260248201527f4f776e61626c653a2063616c6c6572206973206e6f7420746865206f776e657260448201526064016103f5565b600755565b60005473ffffffffffffffffffffffffffffffffffffffff163314610c50576040517f08c379a000000000000000000000000000000000000000000000000000000000815260206004820181905260248201527f4f776e61626c653a2063616c6c6572206973206e6f7420746865206f776e657260448201526064016103f5565b600255565b6000805473ffffffffffffffffffffffffffffffffffffffff163314610cd7576040517f08c379a000000000000000000000000000000000000000000000000000000000815260206004820181905260248201527f4f776e61626c653a2063616c6c6572206973206e6f7420746865206f776e657260448201526064016103f5565b73ffffffffffffffffffffffffffffffffffffffff841660009081526003602052604090205460ff1615610d67576040517f08c379a000000000000000000000000000000000000000000000000000000000815260206004820152601360248201527f4572726f723a206e6f74206d696e7461626c650000000000000000000000000060448201526064016103f5565b6040517f40c10f1900000000000000000000000000000000000000000000000000000000815273ffffffffffffffffffffffffffffffffffffffff8481166004830152602482018490528516906340c10f19906044016020604051808303816000875af1158015610ddc573d6000803e3d6000fd5b505050506040513d601f19601f82011682018060405250810190610e009190611f6d565b50909392505050565b60005473ffffffffffffffffffffffffffffffffffffffff163314610e8a576040517f08c379a000000000000000000000000000000000000000000000000000000000815260206004820181905260248201527f4f776e61626c653a2063616c6c6572206973206e6f7420746865206f776e657260448201526064016103f5565b600155565b600754336000908152600660205260408120549091610ead91612021565b421015610f3c576040517f08c379a000000000000000000000000000000000000000000000000000000000815260206004820152603c60248201527f4572726f723a2043616e206f6e6c7920706572666f726d20746869732061637460448201527f696f6e206f6e63652070657220636f6f6c646f776e20706572696f640000000060648201526084016103f5565b610f4583610886565b610fab576040517f08c379a000000000000000000000000000000000000000000000000000000000815260206004820152601760248201527f4572726f723a204173736574206e6f74206c697374656400000000000000000060448201526064016103f5565b6002548373ffffffffffffffffffffffffffffffffffffffff1663313ce5676040518163ffffffff1660e01b8152600401602060405180830381865afa158015610ff9573d6000803e3d6000fd5b505050506040513d601f19601f8201168201806040525081019061101d9190612039565b60ff1661102a919061205c565b61103590600a612193565b600154611042919061219f565b8211156110d1576040517f08c379a000000000000000000000000000000000000000000000000000000000815260206004820152602960248201527f4572726f723a20416d6f756e742065786365656473206d6178696d756d206d6960448201527f6e7420616d6f756e74000000000000000000000000000000000000000000000060648201526084016103f5565b6040517f70a0823100000000000000000000000000000000000000000000000000000000815230600482015260009073ffffffffffffffffffffffffffffffffffffffff8516906370a0823190602401602060405180830381865afa15801561113e573d6000803e3d6000fd5b505050506040513d601f19601f820116820180604052508101906111629190611f54565b9050828110156111f4576040517f08c379a000000000000000000000000000000000000000000000000000000000815260206004820152602260248201527f4572726f723a20496e73756666696369656e74206661756365742062616c616e60448201527f636500000000000000000000000000000000000000000000000000000000000060648201526084016103f5565b6040517fa9059cbb0000000000000000000000000000000000000000000000000000000081523360048201526024810184905273ffffffffffffffffffffffffffffffffffffffff85169063a9059cbb906044016020604051808303816000875af1158015611267573d6000803e3d6000fd5b505050506040513d601f19601f8201168201806040525081019061128b9190611f6d565b505033600090815260066020526040902042905550919050565b60055460009060ff161515600114156113395760005473ffffffffffffffffffffffffffffffffffffffff163314611339576040517f08c379a000000000000000000000000000000000000000000000000000000000815260206004820181905260248201527f4f776e61626c653a2063616c6c6572206973206e6f7420746865206f776e657260448201526064016103f5565b600754336000908152600660205260409020546113569190612021565b4210156113e5576040517f08c379a000000000000000000000000000000000000000000000000000000000815260206004820152603c60248201527f4572726f723a2043616e206f6e6c7920706572666f726d20746869732061637460448201527f696f6e206f6e63652070657220636f6f6c646f776e20706572696f640000000060648201526084016103f5565b73ffffffffffffffffffffffffffffffffffffffff841660009081526003602052604090205460ff1615611475576040517f08c379a000000000000000000000000000000000000000000000000000000000815260206004820152601360248201527f4572726f723a206e6f74206d696e7461626c650000000000000000000000000060448201526064016103f5565b6002548473ffffffffffffffffffffffffffffffffffffffff1663313ce5676040518163ffffffff1660e01b8152600401602060405180830381865afa1580156114c3573d6000803e3d6000fd5b505050506040513d601f19601f820116820180604052508101906114e79190612039565b60ff166114f4919061205c565b6114ff90600a612193565b60015461150c919061219f565b82111561159b576040517f08c379a000000000000000000000000000000000000000000000000000000000815260206004820152602660248201527f4572726f723a204d696e74206c696d6974207472616e73616374696f6e20657860448201527f636565646564000000000000000000000000000000000000000000000000000060648201526084016103f5565b6040517f40c10f1900000000000000000000000000000000000000000000000000000000815273ffffffffffffffffffffffffffffffffffffffff8481166004830152602482018490528516906340c10f19906044016020604051808303816000875af1158015611610573d6000803e3d6000fd5b505050506040513d601f19601f820116820180604052508101906116349190611f6d565b505033600090815260066020526040902042905592915050565b60005473ffffffffffffffffffffffffffffffffffffffff1633146116cf576040517f08c379a000000000000000000000000000000000000000000000000000000000815260206004820181905260248201527f4f776e61626c653a2063616c6c6572206973206e6f7420746865206f776e657260448201526064016103f5565b60005b82811015610a53578383828181106116ec576116ec611f8a565b90506020020160208101906117019190611d5c565b6040517f1c02bc31000000000000000000000000000000000000000000000000000000008152831515600482015273ffffffffffffffffffffffffffffffffffffffff9190911690631c02bc3190602401600060405180830381600087803b15801561176c57600080fd5b505af1158015611780573d6000803e3d6000fd5b50505050808061178f90611fe8565b9150506116d2565b6000805473ffffffffffffffffffffffffffffffffffffffff163314611819576040517f08c379a000000000000000000000000000000000000000000000000000000000815260206004820181905260248201527f4f776e61626c653a2063616c6c6572206973206e6f7420746865206f776e657260448201526064016103f5565b61182284610886565b611888576040517f08c379a000000000000000000000000000000000000000000000000000000000815260206004820152601760248201527f4572726f723a204173736574206e6f74206c697374656400000000000000000060448201526064016103f5565b6040517f70a0823100000000000000000000000000000000000000000000000000000000815230600482015260009073ffffffffffffffffffffffffffffffffffffffff8616906370a0823190602401602060405180830381865afa1580156118f5573d6000803e3d6000fd5b505050506040513d601f19601f820116820180604052508101906119199190611f54565b9050828110156119ab576040517f08c379a000000000000000000000000000000000000000000000000000000000815260206004820152602260248201527f4572726f723a20496e73756666696369656e74206661756365742062616c616e60448201527f636500000000000000000000000000000000000000000000000000000000000060648201526084016103f5565b6040517fa9059cbb00000000000000000000000000000000000000000000000000000000815273ffffffffffffffffffffffffffffffffffffffff85811660048301526024820185905286169063a9059cbb906044016020604051808303816000875af1158015611a20573d6000803e3d6000fd5b505050506040513d601f19601f82011682018060405250810190611a449190611f6d565b5091949350505050565b60005473ffffffffffffffffffffffffffffffffffffffff163314611acf576040517f08c379a000000000000000000000000000000000000000000000000000000000815260206004820181905260248201527f4f776e61626c653a2063616c6c6572206973206e6f7420746865206f776e657260448201526064016103f5565b73ffffffffffffffffffffffffffffffffffffffff8116611b72576040517f08c379a000000000000000000000000000000000000000000000000000000000815260206004820152602660248201527f4f776e61626c653a206e6577206f776e657220697320746865207a65726f206160448201527f646472657373000000000000000000000000000000000000000000000000000060648201526084016103f5565b6000805460405173ffffffffffffffffffffffffffffffffffffffff808516939216917f8be0079c531659141344cd1fd0a4f28419497f9722a3daafe3b4186f6b6457e091a3600080547fffffffffffffffffffffffff00000000000000000000000000000000000000001673ffffffffffffffffffffffffffffffffffffffff92909216919091179055565b60005473ffffffffffffffffffffffffffffffffffffffff163314611c80576040517f08c379a000000000000000000000000000000000000000000000000000000000815260206004820181905260248201527f4f776e61626c653a2063616c6c6572206973206e6f7420746865206f776e657260448201526064016103f5565b73ffffffffffffffffffffffffffffffffffffffff909116600090815260036020526040902080547fffffffffffffffffffffffffffffffffffffffffffffffffffffffffffffff00169115919091179055565b803573ffffffffffffffffffffffffffffffffffffffff81168114611cf857600080fd5b919050565b60008060408385031215611d1057600080fd5b611d1983611cd4565b946020939093013593505050565b8015158114611d3557600080fd5b50565b600060208284031215611d4a57600080fd5b8135611d5581611d27565b9392505050565b600060208284031215611d6e57600080fd5b611d5582611cd4565b6020808252825182820181905260009190848201906040850190845b81811015611dc557835173ffffffffffffffffffffffffffffffffffffffff1683529284019291840191600101611d93565b50909695505050505050565b60008083601f840112611de357600080fd5b50813567ffffffffffffffff811115611dfb57600080fd5b6020830191508360208260051b8501011115611e1657600080fd5b9250929050565b600080600060408486031215611e3257600080fd5b833567ffffffffffffffff811115611e4957600080fd5b611e5586828701611dd1565b9094509250611e68905060208501611cd4565b90509250925092565b600060208284031215611e8357600080fd5b5035919050565b600080600060608486031215611e9f57600080fd5b611ea884611cd4565b9250611eb660208501611cd4565b9150604084013590509250925092565b600080600060408486031215611edb57600080fd5b833567ffffffffffffffff811115611ef257600080fd5b611efe86828701611dd1565b9094509250506020840135611f1281611d27565b809150509250925092565b60008060408385031215611f3057600080fd5b611f3983611cd4565b91506020830135611f4981611d27565b809150509250929050565b600060208284031215611f6657600080fd5b5051919050565b600060208284031215611f7f57600080fd5b8151611d5581611d27565b7f4e487b7100000000000000000000000000000000000000000000000000000000600052603260045260246000fd5b7f4e487b7100000000000000000000000000000000000000000000000000000000600052601160045260246000fd5b60007fffffffffffffffffffffffffffffffffffffffffffffffffffffffffffffffff82141561201a5761201a611fb9565b5060010190565b6000821982111561203457612034611fb9565b500190565b60006020828403121561204b57600080fd5b815160ff81168114611d5557600080fd5b60008282101561206e5761206e611fb9565b500390565b600181815b808511156120cc57817fffffffffffffffffffffffffffffffffffffffffffffffffffffffffffffffff048211156120b2576120b2611fb9565b808516156120bf57918102915b93841c9390800290612078565b509250929050565b6000826120e357506001610667565b816120f057506000610667565b816001811461210657600281146121105761212c565b6001915050610667565b60ff84111561212157612121611fb9565b50506001821b610667565b5060208310610133831016604e8410600b841016171561214f575081810a610667565b6121598383612073565b807fffffffffffffffffffffffffffffffffffffffffffffffffffffffffffffffff0482111561218b5761218b611fb9565b029392505050565b6000611d5583836120d4565b6000817fffffffffffffffffffffffffffffffffffffffffffffffffffffffffffffffff04831182151516156121d7576121d7611fb9565b50029056fea264697066735822122040e76ca9c238306422014851f48dd14c45cefb78f708f945146f700de71ec01d64736f6c634300080a00338be0079c531659141344cd1fd0a4f28419497f9722a3daafe3b4186f6b6457e0",
  "devdoc": {
    "details": "Ownable Faucet Contract",
    "kind": "dev",
    "methods": {
      "addAsset(address)": {
        "params": {
          "asset": "The address of the asset to add"
        }
      },
      "getAssetList()": {
        "returns": {
          "_0": "An array of asset addresses"
        }
      },
      "getLimitDecimal()": {
        "returns": {
          "_0": "The current limit decimal value"
        }
      },
      "getMaximumMintAmount()": {
        "returns": {
          "_0": "The maximum amount of tokens per mint allowed (whole tokens)"
        }
      },
      "isAssetListed(address)": {
        "params": {
          "asset": "The address of the asset to check"
        },
        "returns": {
          "_0": "True if the asset is in the list, false otherwise"
        }
      },
      "isMintable(address)": {
        "params": {
          "asset": "The address of the asset"
        },
        "returns": {
          "_0": "True if the asset is mintable, false otherwise"
        }
      },
      "isPermissioned()": {
        "returns": {
          "_0": "Returns a boolean, if true the mode is enabled, if false is disabled"
        }
      },
      "mint(address,address,uint256)": {
        "params": {
          "amount": "The amount of tokens to mint",
          "to": "The address to send the minted tokens",
          "token": "The address of the token to perform the mint"
        },
        "returns": {
          "_0": "The amount minted*"
        }
      },
      "mintByOwner(address,address,uint256)": {
        "params": {
          "amount": "The amount of tokens to mint",
          "to": "The address to send the minted tokens",
          "token": "The address of the token to perform the mint"
        },
        "returns": {
          "_0": "The amount minted*"
        }
      },
      "owner()": {
        "details": "Returns the address of the current owner."
      },
      "renounceOwnership()": {
        "details": "Leaves the contract without owner. It will not be possible to call `onlyOwner` functions anymore. Can only be called by the current owner. NOTE: Renouncing ownership will leave the contract without an owner, thereby removing any functionality that is only available to the owner."
      },
      "requestTokens(address,uint256)": {
        "params": {
          "amount": "The amount of tokens to request",
          "asset": "The address of the asset to request"
        },
        "returns": {
          "_0": "The amount of tokens transferred"
        }
      },
      "requestTokensByOwner(address,address,uint256)": {
        "params": {
          "amount": "The amount of tokens to request",
          "asset": "The address of the asset to request",
          "to": "The address to receive the tokens"
        },
        "returns": {
          "_0": "The amount of tokens transferred"
        }
      },
      "setLimitDecimal(uint256)": {
        "params": {
          "newLimitDecimal": "The new value of limit decimal"
        }
      },
      "setMaximumMintAmount(uint256)": {
        "params": {
          "newMaxMintAmount": "The new value of maximum amount of tokens per mint (whole tokens)"
        }
      },
      "setMintable(address,bool)": {
        "params": {
          "active": "True to enable, false to disable",
          "asset": "The address of the asset"
        }
      },
      "setProtectedOfChild(address[],bool)": {
        "params": {
          "childContracts": "A list of child token contract addresses",
          "state": "True if tokens are only mintable through Faucet, false otherwise"
        }
      },
      "transferAssetToOwner(address,uint256)": {
        "params": {
          "amount": "The amount of tokens to transfer",
          "asset": "The address of the asset to transfer"
        },
        "returns": {
          "_0": "The amount of tokens transferred"
        }
      },
      "transferOwnership(address)": {
        "details": "Transfers ownership of the contract to a new account (`newOwner`). Can only be called by the current owner."
      },
      "transferOwnershipOfChild(address[],address)": {
        "params": {
          "childContracts": "A list of child contract addresses",
          "newOwner": "The address of the new owner"
        }
      }
    },
    "title": "Faucet",
    "version": 1
  },
  "userdoc": {
    "kind": "user",
    "methods": {
      "addAsset(address)": {
        "notice": "Adds a new asset to the assetList"
      },
      "getAssetList()": {
        "notice": "Gets the entire assetList"
      },
      "getLimitDecimal()": {
        "notice": "Returns the current limit decimal value"
      },
      "getMaximumMintAmount()": {
        "notice": "Returns the maximum amount of tokens per mint allowed"
      },
      "isAssetListed(address)": {
        "notice": "Checks if an asset is in the assetList"
      },
      "isMintable(address)": {
        "notice": "Returns whether the asset is mintable"
      },
      "isPermissioned()": {
        "notice": "Getter to determine if permissioned mode is enabled or disabled"
      },
      "mint(address,address,uint256)": {
        "notice": "Function to mint Testnet tokens to the destination address"
      },
      "mintByOwner(address,address,uint256)": {
        "notice": "Function to mint Testnet tokens to the destination address, only callable by owner"
      },
      "requestTokens(address,uint256)": {
        "notice": "Requests tokens from the faucet"
      },
      "requestTokensByOwner(address,address,uint256)": {
        "notice": "Requests tokens from the faucet by the owner, bypassing restrictions"
      },
      "setLimitDecimal(uint256)": {
        "notice": "Updates the limit decimal for maximum mint amount calculation"
      },
      "setMaximumMintAmount(uint256)": {
        "notice": "Updates the maximum amount of tokens per mint allowed"
      },
      "setMintable(address,bool)": {
        "notice": "Enable or disable the minting of the faucet asset"
      },
      "setProtectedOfChild(address[],bool)": {
        "notice": "Updates protection of minting feature of child token contracts"
      },
      "transferAssetToOwner(address,uint256)": {
        "notice": "Transfers a specified amount of an asset back to the owner"
      },
      "transferOwnershipOfChild(address[],address)": {
        "notice": "Transfer the ownership of child contracts"
      }
    },
    "version": 1
  },
  "storageLayout": {
    "storage": [
      {
        "astId": 1947,
        "contract": "contracts/periphery-v3/contracts/mocks/testnet-helpers/Faucet.sol:Faucet",
        "label": "_owner",
        "offset": 0,
        "slot": "0",
        "type": "t_address"
      },
      {
        "astId": 36475,
        "contract": "contracts/periphery-v3/contracts/mocks/testnet-helpers/Faucet.sol:Faucet",
        "label": "maximumMintAmount",
        "offset": 0,
        "slot": "1",
        "type": "t_uint256"
      },
      {
        "astId": 36477,
        "contract": "contracts/periphery-v3/contracts/mocks/testnet-helpers/Faucet.sol:Faucet",
        "label": "limitDecimal",
        "offset": 0,
        "slot": "2",
        "type": "t_uint256"
      },
      {
        "astId": 36481,
        "contract": "contracts/periphery-v3/contracts/mocks/testnet-helpers/Faucet.sol:Faucet",
        "label": "_nonMintable",
        "offset": 0,
        "slot": "3",
        "type": "t_mapping(t_address,t_bool)"
      },
      {
        "astId": 36484,
        "contract": "contracts/periphery-v3/contracts/mocks/testnet-helpers/Faucet.sol:Faucet",
        "label": "assetList",
        "offset": 0,
        "slot": "4",
        "type": "t_array(t_address)dyn_storage"
      },
      {
        "astId": 36486,
        "contract": "contracts/periphery-v3/contracts/mocks/testnet-helpers/Faucet.sol:Faucet",
        "label": "_permissioned",
        "offset": 0,
        "slot": "5",
        "type": "t_bool"
      },
      {
        "astId": 36490,
        "contract": "contracts/periphery-v3/contracts/mocks/testnet-helpers/Faucet.sol:Faucet",
        "label": "lastActionTime",
        "offset": 0,
        "slot": "6",
        "type": "t_mapping(t_address,t_uint256)"
      },
      {
        "astId": 36493,
        "contract": "contracts/periphery-v3/contracts/mocks/testnet-helpers/Faucet.sol:Faucet",
        "label": "cooldownPeriod",
        "offset": 0,
        "slot": "7",
        "type": "t_uint256"
      }
    ],
    "types": {
      "t_address": {
        "encoding": "inplace",
        "label": "address",
        "numberOfBytes": "20"
      },
      "t_array(t_address)dyn_storage": {
        "base": "t_address",
        "encoding": "dynamic_array",
        "label": "address[]",
        "numberOfBytes": "32"
      },
      "t_bool": {
        "encoding": "inplace",
        "label": "bool",
        "numberOfBytes": "1"
      },
      "t_mapping(t_address,t_bool)": {
        "encoding": "mapping",
        "key": "t_address",
        "label": "mapping(address => bool)",
        "numberOfBytes": "32",
        "value": "t_bool"
      },
      "t_mapping(t_address,t_uint256)": {
        "encoding": "mapping",
        "key": "t_address",
        "label": "mapping(address => uint256)",
        "numberOfBytes": "32",
        "value": "t_uint256"
      },
      "t_uint256": {
        "encoding": "inplace",
        "label": "uint256",
        "numberOfBytes": "32"
      }
    }
  }
}