{
  "address": "0xb48F6E0d3ceB7ACba979DEa060Cdff1F623195f9",
  "abi": [
    {
      "anonymous": false,
      "inputs": [
        {
          "indexed": false,
          "internalType": "address[]",
          "name": "aggregators",
          "type": "address[]"
        }
      ],
      "name": "AggregatorsDeployed",
      "type": "event"
    },
    {
      "inputs": [
        {
          "internalType": "address",
          "name": "pythPriceFeedsContract",
          "type": "address"
        },
        {
          "internalType": "bytes32[]",
          "name": "feedIds",
          "type": "bytes32[]"
        }
      ],
      "name": "deployAggregators",
      "outputs": [
        {
          "internalType": "address[]",
          "name": "",
          "type": "address[]"
        }
      ],
      "stateMutability": "nonpayable",
      "type": "function"
    }
  ],
  "transactionHash": "0x950fd801ad3d61af0afae0206647392a3d4a1a8cb853d98beebecb515dc58095",
  "args": [],
  "numDeployments": 1,
  "solcInputHash": "47274ab41720418130c606fd62d87c3a",
  "bytecode": "0x608060405234801561001057600080fd5b506111b0806100206000396000f3fe608060405234801561001057600080fd5b506004361061002b5760003560e01c8063be5c5d6714610030575b600080fd5b61004361003e36600461024e565b610059565b6040516100509190610358565b60405180910390f35b606060008251116100ca576040517f08c379a000000000000000000000000000000000000000000000000000000000815260206004820181905260248201527f4174206c65617374206f6e652066656564204944206973207265717569726564604482015260640160405180910390fd5b6000825167ffffffffffffffff8111156100e6576100e661021f565b60405190808252806020026020018201604052801561010f578160200160208202803683370190505b50905060005b83518110156101d357600085858381518110610133576101336103b2565b602002602001015160405161014790610212565b73ffffffffffffffffffffffffffffffffffffffff90921682526020820152604001604051809103906000f080158015610185573d6000803e3d6000fd5b5090508083838151811061019b5761019b6103b2565b73ffffffffffffffffffffffffffffffffffffffff9092166020928302919091019091015250806101cb816103e1565b915050610115565b507f5342bd4a5508a9ff188f8048eca7e657ce3126b3604f2c2ffc4db802032dd4b6816040516102039190610358565b60405180910390a19392505050565b610d398061044283390190565b7f4e487b7100000000000000000000000000000000000000000000000000000000600052604160045260246000fd5b6000806040838503121561026157600080fd5b823573ffffffffffffffffffffffffffffffffffffffff8116811461028557600080fd5b915060208381013567ffffffffffffffff808211156102a357600080fd5b818601915086601f8301126102b757600080fd5b8135818111156102c9576102c961021f565b8060051b6040517fffffffffffffffffffffffffffffffffffffffffffffffffffffffffffffffe0603f8301168101818110858211171561030c5761030c61021f565b60405291825284820192508381018501918983111561032a57600080fd5b938501935b828510156103485784358452938501939285019261032f565b8096505050505050509250929050565b6020808252825182820181905260009190848201906040850190845b818110156103a657835173ffffffffffffffffffffffffffffffffffffffff1683529284019291840191600101610374565b50909695505050505050565b7f4e487b7100000000000000000000000000000000000000000000000000000000600052603260045260246000fd5b60007fffffffffffffffffffffffffffffffffffffffffffffffffffffffffffffffff82141561043a577f4e487b7100000000000000000000000000000000000000000000000000000000600052601160045260246000fd5b506001019056fe608060405234801561001057600080fd5b50604051610d39380380610d3983398101604081905261002f91610057565b600055600180546001600160a01b0319166001600160a01b0392909216919091179055610091565b6000806040838503121561006a57600080fd5b82516001600160a01b038116811461008157600080fd5b6020939093015192949293505050565b610c99806100a06000396000f3fe6080604052600436106100d25760003560e01c80638205bf6a1161007f578063b633620c11610059578063b633620c14610213578063bc36c0a914610233578063f98d06f014610248578063feaf968c1461029a57600080fd5b80638205bf6a146101875780639a6fc8f51461019c578063b5ab58dc146101f357600080fd5b806354fd4d50116100b057806354fd4d501461013c578063668a0f02146101505780637284e4161461016557600080fd5b806331189334146100d7578063313ce5671461010057806350d25bcd14610127575b600080fd5b3480156100e357600080fd5b506100ed60005481565b6040519081526020015b60405180910390f35b34801561010c57600080fd5b506101156102af565b60405160ff90911681526020016100f7565b34801561013357600080fd5b506100ed610383565b34801561014857600080fd5b5060016100ed565b34801561015c57600080fd5b506100ed610429565b34801561017157600080fd5b5061017a610438565b6040516100f79190610813565b34801561019357600080fd5b506100ed610458565b3480156101a857600080fd5b506101bc6101b7366004610886565b6104fe565b6040805169ffffffffffffffffffff968716815260208101959095528401929092526060830152909116608082015260a0016100f7565b3480156101ff57600080fd5b506100ed61020e3660046108b9565b6105c1565b34801561021f57600080fd5b506100ed61022e3660046108b9565b6105d1565b6102466102413660046108d2565b6105db565b005b34801561025457600080fd5b506001546102759073ffffffffffffffffffffffffffffffffffffffff1681565b60405173ffffffffffffffffffffffffffffffffffffffff90911681526020016100f7565b3480156102a657600080fd5b506101bc610750565b600154600080546040517f96834ad300000000000000000000000000000000000000000000000000000000815260048101919091529091829173ffffffffffffffffffffffffffffffffffffffff909116906396834ad390602401608060405180830381865afa158015610327573d6000803e3d6000fd5b505050506040513d601f19601f8201168201806040525081019061034b9190610976565b905080604001517fffffffffffffffffffffffffffffffffffffffffffffffffffffffffffffffff61037d9190610a4e565b91505090565b600154600080546040517f96834ad300000000000000000000000000000000000000000000000000000000815260048101919091529091829173ffffffffffffffffffffffffffffffffffffffff909116906396834ad390602401608060405180830381865afa1580156103fb573d6000803e3d6000fd5b505050506040513d601f19601f8201168201806040525081019061041f9190610976565b5160070b92915050565b6000610433610458565b905090565b60606040518060600160405280603e8152602001610c26603e9139905090565b600154600080546040517f96834ad300000000000000000000000000000000000000000000000000000000815260048101919091529091829173ffffffffffffffffffffffffffffffffffffffff909116906396834ad390602401608060405180830381865afa1580156104d0573d6000803e3d6000fd5b505050506040513d601f19601f820116820180604052508101906104f49190610976565b6060015192915050565b600154600080546040517f96834ad3000000000000000000000000000000000000000000000000000000008152600481019190915290918291829182918291829173ffffffffffffffffffffffffffffffffffffffff909116906396834ad390602401608060405180830381865afa15801561057e573d6000803e3d6000fd5b505050506040513d601f19601f820116820180604052508101906105a29190610976565b8051606090910151979860079190910b97965086955088945092505050565b60006105cb610383565b92915050565b60006105cb610458565b6001546040517fd47eed4500000000000000000000000000000000000000000000000000000000815260009173ffffffffffffffffffffffffffffffffffffffff169063d47eed45906106349086908690600401610b36565b602060405180830381865afa158015610651573d6000803e3d6000fd5b505050506040513d601f19601f820116820180604052508101906106759190610c0c565b6001546040517fef9e5e2800000000000000000000000000000000000000000000000000000000815291925073ffffffffffffffffffffffffffffffffffffffff169063ef9e5e289083906106d09087908790600401610b36565b6000604051808303818588803b1580156106e957600080fd5b505af11580156106fd573d6000803e3d6000fd5b50506040513393504792509050600081818185875af1925050503d8060008114610743576040519150601f19603f3d011682016040523d82523d6000602084013e610748565b606091505b505050505050565b600154600080546040517f96834ad3000000000000000000000000000000000000000000000000000000008152600481019190915290918291829182918291829173ffffffffffffffffffffffffffffffffffffffff909116906396834ad390602401608060405180830381865afa1580156107d0573d6000803e3d6000fd5b505050506040513d601f19601f820116820180604052508101906107f49190610976565b60608101519051909760079190910b9650879550859450849350915050565b600060208083528351808285015260005b8181101561084057858101830151858201604001528201610824565b81811115610852576000604083870101525b50601f017fffffffffffffffffffffffffffffffffffffffffffffffffffffffffffffffe016929092016040019392505050565b60006020828403121561089857600080fd5b813569ffffffffffffffffffff811681146108b257600080fd5b9392505050565b6000602082840312156108cb57600080fd5b5035919050565b600080602083850312156108e557600080fd5b823567ffffffffffffffff808211156108fd57600080fd5b818501915085601f83011261091157600080fd5b81358181111561092057600080fd5b8660208260051b850101111561093557600080fd5b60209290920196919550909350505050565b805167ffffffffffffffff8116811461095f57600080fd5b919050565b8051600381900b811461095f57600080fd5b60006080828403121561098857600080fd5b6040516080810181811067ffffffffffffffff821117156109d2577f4e487b7100000000000000000000000000000000000000000000000000000000600052604160045260246000fd5b6040528251600781900b81146109e757600080fd5b81526109f560208401610947565b6020820152610a0660408401610964565b6040820152606083015160608201528091505092915050565b7f4e487b7100000000000000000000000000000000000000000000000000000000600052601160045260246000fd5b60008082810b84820b82811383831382607f0484118282161615610a7457610a74610a1f565b7fffffffffffffffffffffffffffffffffffffffffffffffffffffffffffffff8085841285820585128184161615610aae57610aae610a1f565b9585129583871685830587121615610ac857610ac8610a1f565b84607f0586128188161615610adf57610adf610a1f565b505050910295945050505050565b8183528181602085013750600060208284010152600060207fffffffffffffffffffffffffffffffffffffffffffffffffffffffffffffffe0601f840116840101905092915050565b60208082528181018390526000906040600585901b8401810190840186845b87811015610bff577fffffffffffffffffffffffffffffffffffffffffffffffffffffffffffffffc087850301835281357fffffffffffffffffffffffffffffffffffffffffffffffffffffffffffffffe18a3603018112610bb657600080fd5b8901803567ffffffffffffffff811115610bcf57600080fd5b8036038b1315610bde57600080fd5b610beb8682898501610aed565b955050509184019190840190600101610b55565b5091979650505050505050565b600060208284031215610c1e57600080fd5b505191905056fe4120706f7274206f66206120636861696e6c696e6b2061676772656761746f7220706f77657265642062792070797468206e6574776f726b206665656473a26469706673582212206e12860f606bc1b231eadcdbf57802e2f3e4a9330e983ece299358a1977b8c6d64736f6c634300080a0033a2646970667358221220587e5ec2aa5a58389414bbd345215ea56c55e07ff281b1546c961479fae3eeb864736f6c634300080a0033",
  "devdoc": {
    "kind": "dev",
    "methods": {},
    "version": 1
  },
  "userdoc": {
    "kind": "user",
    "methods": {},
    "version": 1
  },
  "storageLayout": {
    "storage": [],
    "types": null
  }
}