{
  "address": "0x94189c42B5e11d742aC689e8e8d51220144E0290",
  "abi": [
    {
      "inputs": [
        {
          "internalType": "contract IPoolAddressesProvider",
          "name": "provider",
          "type": "address"
        },
        {
          "internalType": "address[]",
          "name": "assets",
          "type": "address[]"
        },
        {
          "internalType": "address[]",
          "name": "chainlinkSources",
          "type": "address[]"
        },
        {
          "internalType": "address[]",
          "name": "pythSources",
          "type": "address[]"
        },
        {
          "internalType": "address",
          "name": "fallbackOracle",
          "type": "address"
        },
        {
          "internalType": "address",
          "name": "baseCurrency",
          "type": "address"
        },
        {
          "internalType": "uint256",
          "name": "baseCurrencyUnit",
          "type": "uint256"
        }
      ],
      "stateMutability": "nonpayable",
      "type": "constructor"
    },
    {
      "anonymous": false,
      "inputs": [
        {
          "indexed": true,
          "internalType": "address",
          "name": "asset",
          "type": "address"
        },
        {
          "indexed": true,
          "internalType": "address",
          "name": "source",
          "type": "address"
        }
      ],
      "name": "AssetSourceUpdated",
      "type": "event"
    },
    {
      "anonymous": false,
      "inputs": [
        {
          "indexed": true,
          "internalType": "address",
          "name": "baseCurrency",
          "type": "address"
        },
        {
          "indexed": false,
          "internalType": "uint256",
          "name": "baseCurrencyUnit",
          "type": "uint256"
        }
      ],
      "name": "BaseCurrencySet",
      "type": "event"
    },
    {
      "anonymous": false,
      "inputs": [
        {
          "indexed": true,
          "internalType": "address",
          "name": "fallbackOracle",
          "type": "address"
        }
      ],
      "name": "FallbackOracleUpdated",
      "type": "event"
    },
    {
      "inputs": [],
      "name": "ADDRESSES_PROVIDER",
      "outputs": [
        {
          "internalType": "contract IPoolAddressesProvider",
          "name": "",
          "type": "address"
        }
      ],
      "stateMutability": "view",
      "type": "function"
    },
    {
      "inputs": [],
      "name": "BASE_CURRENCY",
      "outputs": [
        {
          "internalType": "address",
          "name": "",
          "type": "address"
        }
      ],
      "stateMutability": "view",
      "type": "function"
    },
    {
      "inputs": [],
      "name": "BASE_CURRENCY_UNIT",
      "outputs": [
        {
          "internalType": "uint256",
          "name": "",
          "type": "uint256"
        }
      ],
      "stateMutability": "view",
      "type": "function"
    },
    {
      "inputs": [
        {
          "internalType": "address",
          "name": "asset",
          "type": "address"
        }
      ],
      "name": "getAssetPrice",
      "outputs": [
        {
          "internalType": "uint256",
          "name": "",
          "type": "uint256"
        }
      ],
      "stateMutability": "view",
      "type": "function"
    },
    {
      "inputs": [
        {
          "internalType": "address[]",
          "name": "assets",
          "type": "address[]"
        }
      ],
      "name": "getAssetsPrices",
      "outputs": [
        {
          "internalType": "uint256[]",
          "name": "",
          "type": "uint256[]"
        }
      ],
      "stateMutability": "view",
      "type": "function"
    },
    {
      "inputs": [
        {
          "internalType": "address",
          "name": "asset",
          "type": "address"
        }
      ],
      "name": "getChainlinkSourceOfAsset",
      "outputs": [
        {
          "internalType": "address",
          "name": "",
          "type": "address"
        }
      ],
      "stateMutability": "view",
      "type": "function"
    },
    {
      "inputs": [],
      "name": "getFallbackOracle",
      "outputs": [
        {
          "internalType": "address",
          "name": "",
          "type": "address"
        }
      ],
      "stateMutability": "view",
      "type": "function"
    },
    {
      "inputs": [
        {
          "internalType": "address",
          "name": "asset",
          "type": "address"
        }
      ],
      "name": "getPythSourceOfAsset",
      "outputs": [
        {
          "internalType": "address",
          "name": "",
          "type": "address"
        }
      ],
      "stateMutability": "view",
      "type": "function"
    },
    {
      "inputs": [
        {
          "internalType": "address[]",
          "name": "assets",
          "type": "address[]"
        },
        {
          "internalType": "address[]",
          "name": "sources",
          "type": "address[]"
        }
      ],
      "name": "setChainlinkAssetSources",
      "outputs": [],
      "stateMutability": "nonpayable",
      "type": "function"
    },
    {
      "inputs": [
        {
          "internalType": "address",
          "name": "fallbackOracle",
          "type": "address"
        }
      ],
      "name": "setFallbackOracle",
      "outputs": [],
      "stateMutability": "nonpayable",
      "type": "function"
    },
    {
      "inputs": [
        {
          "internalType": "address[]",
          "name": "assets",
          "type": "address[]"
        },
        {
          "internalType": "address[]",
          "name": "sources",
          "type": "address[]"
        }
      ],
      "name": "setPythAssetSources",
      "outputs": [],
      "stateMutability": "nonpayable",
      "type": "function"
    }
  ],
  "transactionHash": "0xa5caafac807b81dd4c094825cd24cc884eb9a979c27cf68e6ca3025a49dc694e",
  "args": [
    "0xa0Dd19f83df7d0Db5fe6eDaA7B73C0CB28a91142",
    [
      "0x4200000000000000000000000000000000000006",
      "0x2CAE934a1e84F693fbb78CA5ED3B0A6893259441",
      "0x8BEDECB512cCAD2962ce284DdE4540Aa219fa728"
    ],
    [
      "0x96b0f252dd2F8aB9C51465EA195226ba5939aa5C",
      "0x0000000000000000000000000000000000000000",
      "0x0000000000000000000000000000000000000000"
    ],
    [
      "0xd3da430a1d7dDBE4306Fd876CD8f14880D5829E5",
      "0xe1bC83Bc7F096D61bB9911719eEc48FDE03A99a7",
      "0xB9b213680d656356a0FDcd94f2157bE7F05A7d8E"
    ],
    "0x0000000000000000000000000000000000000000",
    "0x0000000000000000000000000000000000000000",
    "100000000"
  ],
  "numDeployments": 1,
  "solcInputHash": "1cf6dc100e2330c86322ad94517a96cc",
  "bytecode": "0x60e06040523480156200001157600080fd5b50604051620017e0380380620017e0833981016040819052620000349162000497565b6001600160a01b0387166080526200004c83620000b8565b62000058868662000102565b6200006486856200025c565b6001600160a01b03821660a081905260c08290526040518281527fe27c4c1372396a3d15a9922f74f9dfc7c72b1ad6d63868470787249c356454c19060200160405180910390a25050505050505062000607565b600280546001600160a01b0319166001600160a01b0383169081179091556040517fce7a780d33665b1ea097af5f155e3821b809ecbaa839d3b33aa83ba28168cefb90600090a250565b8051825114604051806040016040528060028152602001611b9b60f11b815250906200014c5760405162461bcd60e51b81526004016200014391906200056f565b60405180910390fd5b5060005b825181101562000257578181815181106200016f576200016f620005c7565b60200260200101516000808584815181106200018f576200018f620005c7565b60200260200101516001600160a01b03166001600160a01b0316815260200190815260200160002060006101000a8154816001600160a01b0302191690836001600160a01b03160217905550818181518110620001f057620001f0620005c7565b60200260200101516001600160a01b0316838281518110620002165762000216620005c7565b60200260200101516001600160a01b0316600080516020620017c083398151915260405160405180910390a3806200024e81620005dd565b91505062000150565b505050565b8051825114604051806040016040528060028152602001611b9b60f11b815250906200029d5760405162461bcd60e51b81526004016200014391906200056f565b5060005b82518110156200025757818181518110620002c057620002c0620005c7565b602002602001015160016000858481518110620002e157620002e1620005c7565b60200260200101516001600160a01b03166001600160a01b0316815260200190815260200160002060006101000a8154816001600160a01b0302191690836001600160a01b03160217905550818181518110620003425762000342620005c7565b60200260200101516001600160a01b0316838281518110620003685762000368620005c7565b60200260200101516001600160a01b0316600080516020620017c083398151915260405160405180910390a380620003a081620005dd565b915050620002a1565b6001600160a01b0381168114620003bf57600080fd5b50565b634e487b7160e01b600052604160045260246000fd5b8051620003e581620003a9565b919050565b600082601f830112620003fc57600080fd5b815160206001600160401b03808311156200041b576200041b620003c2565b8260051b604051601f19603f83011681018181108482111715620004435762000443620003c2565b6040529384528581018301938381019250878511156200046257600080fd5b83870191505b848210156200048c576200047c82620003d8565b8352918301919083019062000468565b979650505050505050565b600080600080600080600060e0888a031215620004b357600080fd5b8751620004c081620003a9565b60208901519097506001600160401b0380821115620004de57600080fd5b620004ec8b838c01620003ea565b975060408a01519150808211156200050357600080fd5b620005118b838c01620003ea565b965060608a01519150808211156200052857600080fd5b50620005378a828b01620003ea565b94505060808801516200054a81620003a9565b92506200055a60a08901620003d8565b915060c0880151905092959891949750929550565b600060208083528351808285015260005b818110156200059e5785810183015185820160400152820162000580565b81811115620005b1576000604083870101525b50601f01601f1916929092016040019392505050565b634e487b7160e01b600052603260045260246000fd5b60006000198214156200060057634e487b7160e01b600052601160045260246000fd5b5060010190565b60805160a05160c0516111756200064b600039600081816101a3015261042401526000818161021e01526103f901526000818160d3015261078701526111756000f3fe608060405234801561001057600080fd5b50600436106100c95760003560e01c80638c89b64f11610081578063cc9012061161005b578063cc90120614610206578063e19f470014610219578063f15326741461024057600080fd5b80638c89b64f1461019e5780639d23d9f2146101d3578063b3596f07146101f357600080fd5b806337a6000e116100b257806337a6000e146101345780633bf3af77146101475780636210308c1461018057600080fd5b80630542975c146100ce578063170aee731461011f575b600080fd5b6100f57f000000000000000000000000000000000000000000000000000000000000000081565b60405173ffffffffffffffffffffffffffffffffffffffff90911681526020015b60405180910390f35b61013261012d366004610de5565b610279565b005b610132610142366004610e55565b61028d565b6100f5610155366004610de5565b73ffffffffffffffffffffffffffffffffffffffff9081166000908152600160205260409020541690565b60025473ffffffffffffffffffffffffffffffffffffffff166100f5565b6101c57f000000000000000000000000000000000000000000000000000000000000000081565b604051908152602001610116565b6101e66101e1366004610ec1565b610308565b6040516101169190610f03565b6101c5610201366004610de5565b6103bd565b610132610214366004610e55565b61070e565b6100f57f000000000000000000000000000000000000000000000000000000000000000081565b6100f561024e366004610de5565b73ffffffffffffffffffffffffffffffffffffffff9081166000908152602081905260409020541690565b610281610783565b61028a816109b4565b50565b610295610783565b61030284848080602002602001604051908101604052809392919081815260200183836020028082843760009201919091525050604080516020808802828101820190935287825290935087925086918291850190849080828437600092019190915250610a2392505050565b50505050565b606060008267ffffffffffffffff81111561032557610325610f47565b60405190808252806020026020018201604052801561034e578160200160208202803683370190505b50905060005b838110156103b55761038685858381811061037157610371610f76565b90506020020160208101906102019190610de5565b82828151811061039857610398610f76565b6020908102919091010152806103ad81610fa5565b915050610354565b509392505050565b73ffffffffffffffffffffffffffffffffffffffff808216600081815260208181526040808320546001909252822054919390811692918116917f0000000000000000000000000000000000000000000000000000000000000000909116141561044a57507f00000000000000000000000000000000000000000000000000000000000000009392505050565b73ffffffffffffffffffffffffffffffffffffffff8216158015610482575073ffffffffffffffffffffffffffffffffffffffff8116155b15610523576002546040517fb3596f0700000000000000000000000000000000000000000000000000000000815273ffffffffffffffffffffffffffffffffffffffff86811660048301529091169063b3596f0790602401602060405180830381865afa1580156104f7573d6000803e3d6000fd5b505050506040513d601f19601f8201168201806040525081019061051b9190611005565b949350505050565b60008073ffffffffffffffffffffffffffffffffffffffff8416156105b9578373ffffffffffffffffffffffffffffffffffffffff1663feaf968c6040518163ffffffff1660e01b815260040160a060405180830381865afa15801561058d573d6000803e3d6000fd5b505050506040513d601f19601f820116820180604052508101906105b1919061103d565b509194505050505b73ffffffffffffffffffffffffffffffffffffffff83161561064c578273ffffffffffffffffffffffffffffffffffffffff1663feaf968c6040518163ffffffff1660e01b815260040160a060405180830381865afa158015610620573d6000803e3d6000fd5b505050506040513d601f19601f82011682018060405250810190610644919061103d565b509193505050505b600082131561065e5750949350505050565b60008113156106705795945050505050565b6002546040517fb3596f0700000000000000000000000000000000000000000000000000000000815273ffffffffffffffffffffffffffffffffffffffff88811660048301529091169063b3596f0790602401602060405180830381865afa1580156106e0573d6000803e3d6000fd5b505050506040513d601f19601f820116820180604052508101906107049190611005565b9695505050505050565b610716610783565b61030284848080602002602001604051908101604052809392919081815260200183836020028082843760009201919091525050604080516020808802828101820190935287825290935087925086918291850190849080828437600092019190915250610bf592505050565b60007f000000000000000000000000000000000000000000000000000000000000000073ffffffffffffffffffffffffffffffffffffffff1663707cd7166040518163ffffffff1660e01b8152600401602060405180830381865afa1580156107f0573d6000803e3d6000fd5b505050506040513d601f19601f82011682018060405250810190610814919061108d565b6040517f13ee32e000000000000000000000000000000000000000000000000000000000815233600482015290915073ffffffffffffffffffffffffffffffffffffffff8216906313ee32e090602401602060405180830381865afa158015610881573d6000803e3d6000fd5b505050506040513d601f19601f820116820180604052508101906108a591906110aa565b8061093957506040517f7be53ca100000000000000000000000000000000000000000000000000000000815233600482015273ffffffffffffffffffffffffffffffffffffffff821690637be53ca190602401602060405180830381865afa158015610915573d6000803e3d6000fd5b505050506040513d601f19601f8201168201806040525081019061093991906110aa565b6040518060400160405280600181526020017f3500000000000000000000000000000000000000000000000000000000000000815250906109b0576040517f08c379a00000000000000000000000000000000000000000000000000000000081526004016109a791906110cc565b60405180910390fd5b5050565b600280547fffffffffffffffffffffffff00000000000000000000000000000000000000001673ffffffffffffffffffffffffffffffffffffffff83169081179091556040517fce7a780d33665b1ea097af5f155e3821b809ecbaa839d3b33aa83ba28168cefb90600090a250565b80518251146040518060400160405280600281526020017f373600000000000000000000000000000000000000000000000000000000000081525090610a96576040517f08c379a00000000000000000000000000000000000000000000000000000000081526004016109a791906110cc565b5060005b8251811015610bf057818181518110610ab557610ab5610f76565b6020026020010151600080858481518110610ad257610ad2610f76565b602002602001015173ffffffffffffffffffffffffffffffffffffffff1673ffffffffffffffffffffffffffffffffffffffff16815260200190815260200160002060006101000a81548173ffffffffffffffffffffffffffffffffffffffff021916908373ffffffffffffffffffffffffffffffffffffffff160217905550818181518110610b6457610b64610f76565b602002602001015173ffffffffffffffffffffffffffffffffffffffff16838281518110610b9457610b94610f76565b602002602001015173ffffffffffffffffffffffffffffffffffffffff167f22c5b7b2d8561d39f7f210b6b326a1aa69f15311163082308ac4877db6339dc160405160405180910390a380610be881610fa5565b915050610a9a565b505050565b80518251146040518060400160405280600281526020017f373600000000000000000000000000000000000000000000000000000000000081525090610c68576040517f08c379a00000000000000000000000000000000000000000000000000000000081526004016109a791906110cc565b5060005b8251811015610bf057818181518110610c8757610c87610f76565b602002602001015160016000858481518110610ca557610ca5610f76565b602002602001015173ffffffffffffffffffffffffffffffffffffffff1673ffffffffffffffffffffffffffffffffffffffff16815260200190815260200160002060006101000a81548173ffffffffffffffffffffffffffffffffffffffff021916908373ffffffffffffffffffffffffffffffffffffffff160217905550818181518110610d3757610d37610f76565b602002602001015173ffffffffffffffffffffffffffffffffffffffff16838281518110610d6757610d67610f76565b602002602001015173ffffffffffffffffffffffffffffffffffffffff167f22c5b7b2d8561d39f7f210b6b326a1aa69f15311163082308ac4877db6339dc160405160405180910390a380610dbb81610fa5565b915050610c6c565b73ffffffffffffffffffffffffffffffffffffffff8116811461028a57600080fd5b600060208284031215610df757600080fd5b8135610e0281610dc3565b9392505050565b60008083601f840112610e1b57600080fd5b50813567ffffffffffffffff811115610e3357600080fd5b6020830191508360208260051b8501011115610e4e57600080fd5b9250929050565b60008060008060408587031215610e6b57600080fd5b843567ffffffffffffffff80821115610e8357600080fd5b610e8f88838901610e09565b90965094506020870135915080821115610ea857600080fd5b50610eb587828801610e09565b95989497509550505050565b60008060208385031215610ed457600080fd5b823567ffffffffffffffff811115610eeb57600080fd5b610ef785828601610e09565b90969095509350505050565b6020808252825182820181905260009190848201906040850190845b81811015610f3b57835183529284019291840191600101610f1f565b50909695505050505050565b7f4e487b7100000000000000000000000000000000000000000000000000000000600052604160045260246000fd5b7f4e487b7100000000000000000000000000000000000000000000000000000000600052603260045260246000fd5b60007fffffffffffffffffffffffffffffffffffffffffffffffffffffffffffffffff821415610ffe577f4e487b7100000000000000000000000000000000000000000000000000000000600052601160045260246000fd5b5060010190565b60006020828403121561101757600080fd5b5051919050565b805169ffffffffffffffffffff8116811461103857600080fd5b919050565b600080600080600060a0868803121561105557600080fd5b61105e8661101e565b94506020860151935060408601519250606086015191506110816080870161101e565b90509295509295909350565b60006020828403121561109f57600080fd5b8151610e0281610dc3565b6000602082840312156110bc57600080fd5b81518015158114610e0257600080fd5b600060208083528351808285015260005b818110156110f9578581018301518582016040015282016110dd565b8181111561110b576000604083870101525b50601f017fffffffffffffffffffffffffffffffffffffffffffffffffffffffffffffffe01692909201604001939250505056fea2646970667358221220534dc3cd89625c0941df3d1888029a85972a401f72bd96814698de90c86f867864736f6c634300080a003322c5b7b2d8561d39f7f210b6b326a1aa69f15311163082308ac4877db6339dc1",
  "devdoc": {
    "author": "Sake",
    "kind": "dev",
    "methods": {
      "constructor": {
        "params": {
          "assets": "The addresses of the assets",
          "baseCurrency": "The base currency used for the price quotes. If USD is used, base currency is 0x0",
          "baseCurrencyUnit": "The unit of the base currency",
          "chainlinkSources": "The address of the chainlink source of each asset",
          "fallbackOracle": "The address of the fallback oracle to use if the data of an        aggregator is not consistent, should be pyth",
          "provider": "The address of the new PoolAddressesProvider",
          "pythSources": "The address of the pyth source of each asset"
        }
      },
      "getAssetPrice(address)": {
        "params": {
          "asset": "The address of the asset"
        },
        "returns": {
          "_0": "The price of the asset"
        }
      },
      "getAssetsPrices(address[])": {
        "params": {
          "assets": "The list of assets addresses"
        },
        "returns": {
          "_0": "The prices of the given assets"
        }
      },
      "getChainlinkSourceOfAsset(address)": {
        "params": {
          "asset": "The address of the asset"
        },
        "returns": {
          "_0": "The address of the Chainlink source"
        }
      },
      "getFallbackOracle()": {
        "returns": {
          "_0": "The address of the fallback oracle"
        }
      },
      "getPythSourceOfAsset(address)": {
        "params": {
          "asset": "The address of the asset"
        },
        "returns": {
          "_0": "The address of the Pyth source"
        }
      },
      "setChainlinkAssetSources(address[],address[])": {
        "params": {
          "assets": "The addresses of the assets",
          "sources": "The addresses of the price sources"
        }
      },
      "setFallbackOracle(address)": {
        "params": {
          "fallbackOracle": "The address of the fallback oracle"
        }
      },
      "setPythAssetSources(address[],address[])": {
        "params": {
          "assets": "The addresses of the assets",
          "sources": "The addresses of the price sources"
        }
      }
    },
    "stateVariables": {
      "ADDRESSES_PROVIDER": {
        "return": "The address of the PoolAddressesProvider contract",
        "returns": {
          "_0": "The address of the PoolAddressesProvider contract"
        }
      },
      "BASE_CURRENCY": {
        "details": "Address 0x0 is reserved for USD as base currency.",
        "return": "Returns the base currency address.",
        "returns": {
          "_0": "Returns the base currency address."
        }
      },
      "BASE_CURRENCY_UNIT": {
        "details": "1 ether for ETH, 1e8 for USD.",
        "return": "Returns the base currency unit.",
        "returns": {
          "_0": "Returns the base currency unit."
        }
      }
    },
    "title": "AaveOracle",
    "version": 1
  },
  "userdoc": {
    "kind": "user",
    "methods": {
      "ADDRESSES_PROVIDER()": {
        "notice": "Returns the PoolAddressesProvider"
      },
      "BASE_CURRENCY()": {
        "notice": "Returns the base currency address"
      },
      "BASE_CURRENCY_UNIT()": {
        "notice": "Returns the base currency unit"
      },
      "constructor": {
        "notice": "Constructor"
      },
      "getAssetPrice(address)": {
        "notice": "Returns the asset price in the base currency"
      },
      "getAssetsPrices(address[])": {
        "notice": "Returns a list of prices from a list of assets addresses"
      },
      "getChainlinkSourceOfAsset(address)": {
        "notice": "Returns the address of the Chainlink source for an asset address"
      },
      "getFallbackOracle()": {
        "notice": "Returns the address of the fallback oracle"
      },
      "getPythSourceOfAsset(address)": {
        "notice": "Returns the address of the Pyth source for an asset address"
      },
      "setChainlinkAssetSources(address[],address[])": {
        "notice": "Sets or replaces Chainlink price sources of assets"
      },
      "setFallbackOracle(address)": {
        "notice": "Sets the fallback oracle"
      },
      "setPythAssetSources(address[],address[])": {
        "notice": "Sets or replaces Pyth price sources of assets"
      }
    },
    "notice": "Contract to get asset prices, manage price sources and update the fallback oracle - Use of Chainlink Aggregators as first source of price, Pyth Aggregators as second source of price - If the returned price by a Chainlink aggregator is <= 0, the call is forwarded to a fallback oracle, which is pyth oracle - PythAggregatorV3 - compare to original AaveOracle: use AggregatorV3Interface rather then AggregatorInterface, use latestRoundData() rather then latestAnswer()",
    "version": 1
  },
  "storageLayout": {
    "storage": [
      {
        "astId": 48957,
        "contract": "contracts/sake/contracts/misc/AaveOracle.sol:AaveOracle",
        "label": "chainlinkAssetsSources",
        "offset": 0,
        "slot": "0",
        "type": "t_mapping(t_address,t_contract(AggregatorV3Interface)3076)"
      },
      {
        "astId": 48962,
        "contract": "contracts/sake/contracts/misc/AaveOracle.sol:AaveOracle",
        "label": "pythAssetsSources",
        "offset": 0,
        "slot": "1",
        "type": "t_mapping(t_address,t_contract(AggregatorV3Interface)3076)"
      },
      {
        "astId": 48965,
        "contract": "contracts/sake/contracts/misc/AaveOracle.sol:AaveOracle",
        "label": "_fallbackOracle",
        "offset": 0,
        "slot": "2",
        "type": "t_contract(IPriceOracleGetter)9576"
      }
    ],
    "types": {
      "t_address": {
        "encoding": "inplace",
        "label": "address",
        "numberOfBytes": "20"
      },
      "t_contract(AggregatorV3Interface)3076": {
        "encoding": "inplace",
        "label": "contract AggregatorV3Interface",
        "numberOfBytes": "20"
      },
      "t_contract(IPriceOracleGetter)9576": {
        "encoding": "inplace",
        "label": "contract IPriceOracleGetter",
        "numberOfBytes": "20"
      },
      "t_mapping(t_address,t_contract(AggregatorV3Interface)3076)": {
        "encoding": "mapping",
        "key": "t_address",
        "label": "mapping(address => contract AggregatorV3Interface)",
        "numberOfBytes": "32",
        "value": "t_contract(AggregatorV3Interface)3076"
      }
    }
  }
}